{
  "contractName": "Lottery",
  "abi": [
    {
      "inputs": [],
      "stateMutability": "nonpayable",
      "type": "constructor"
    },
    {
      "inputs": [],
      "name": "buyTicket",
      "outputs": [],
      "stateMutability": "payable",
      "type": "function"
    },
    {
      "inputs": [],
      "name": "doLottery",
      "outputs": [
        {
          "internalType": "bool",
          "name": "",
          "type": "bool"
        }
      ],
      "stateMutability": "nonpayable",
      "type": "function"
    }
  ],
  "bytecode": "0x608060405267016345785d8a000060015534801561001c57600080fd5b50336000806101000a81548173ffffffffffffffffffffffffffffffffffffffff021916908373ffffffffffffffffffffffffffffffffffffffff16021790555062093a804261006c91906100b0565b600381905550610106565b6000819050919050565b7f4e487b7100000000000000000000000000000000000000000000000000000000600052601160045260246000fd5b60006100bb82610077565b91506100c683610077565b9250827fffffffffffffffffffffffffffffffffffffffffffffffffffffffffffffffff038211156100fb576100fa610081565b5b828201905092915050565b61059a806101156000396000f3fe6080604052600436106100295760003560e01c8063583fa3a81461002e578063edca914c14610059575b600080fd5b34801561003a57600080fd5b50610043610063565b60405161005091906102dd565b60405180910390f35b61006161024f565b005b60008060009054906101000a900473ffffffffffffffffffffffffffffffffffffffff1673ffffffffffffffffffffffffffffffffffffffff163373ffffffffffffffffffffffffffffffffffffffff16146100be57600080fd5b600354421180156100dd57506102586003546100da9190610331565b42105b6100e657600080fd5b62093a80600360008282546100fb9190610331565b92505081905550600060028054905060026101169190610387565b434060001c6101259190610410565b9050600280549050811061013d57600091505061024c565b60006064605a4761014e9190610387565b6101589190610441565b90506000600283815481106101705761016f610472565b5b9060005260206000200160009054906101000a900473ffffffffffffffffffffffffffffffffffffffff1673ffffffffffffffffffffffffffffffffffffffff16826040516101be906104d2565b60006040518083038185875af1925050503d80600081146101fb576040519150601f19603f3d011682016040523d82523d6000602084013e610200565b606091505b5050905080610244576040517f08c379a000000000000000000000000000000000000000000000000000000000815260040161023b90610544565b60405180910390fd5b600193505050505b90565b600154341461025d57600080fd5b6002339080600181540180825580915050600190039060005260206000200160009091909190916101000a81548173ffffffffffffffffffffffffffffffffffffffff021916908373ffffffffffffffffffffffffffffffffffffffff160217905550565b60008115159050919050565b6102d7816102c2565b82525050565b60006020820190506102f260008301846102ce565b92915050565b6000819050919050565b7f4e487b7100000000000000000000000000000000000000000000000000000000600052601160045260246000fd5b600061033c826102f8565b9150610347836102f8565b9250827fffffffffffffffffffffffffffffffffffffffffffffffffffffffffffffffff0382111561037c5761037b610302565b5b828201905092915050565b6000610392826102f8565b915061039d836102f8565b9250817fffffffffffffffffffffffffffffffffffffffffffffffffffffffffffffffff04831182151516156103d6576103d5610302565b5b828202905092915050565b7f4e487b7100000000000000000000000000000000000000000000000000000000600052601260045260246000fd5b600061041b826102f8565b9150610426836102f8565b925082610436576104356103e1565b5b828206905092915050565b600061044c826102f8565b9150610457836102f8565b925082610467576104666103e1565b5b828204905092915050565b7f4e487b7100000000000000000000000000000000000000000000000000000000600052603260045260246000fd5b600081905092915050565b50565b60006104bc6000836104a1565b91506104c7826104ac565b600082019050919050565b60006104dd826104af565b9150819050919050565b600082825260208201905092915050565b7f7061796d656e74206661696c6564000000000000000000000000000000000000600082015250565b600061052e600e836104e7565b9150610539826104f8565b602082019050919050565b6000602082019050818103600083015261055d81610521565b905091905056fea26469706673582212204b0f90f659ffa474282243d13575dfe24248ea041a80b1b8e29b37643bdd516964736f6c634300080c0033",
  "immutableReferences": {},
  "source": "// SPDX-License-Identifier: MIT\n\npragma solidity 0.8.12;\n\ncontract Lottery {\n    address stateOfCali;\n    uint256 ticketPrice = 0.1 ether;\n    address[] participants;\n    uint256 lotteryEpoch;\n\n    modifier onlyState() {\n        require(msg.sender == stateOfCali);\n        _;\n    }\n\n    constructor() {\n        stateOfCali = msg.sender;\n        lotteryEpoch = block.timestamp + 7 days;\n    }\n\n    function buyTicket() external payable {\n        require(msg.value == ticketPrice);\n        participants.push(msg.sender);\n    }\n\n    function doLottery() external onlyState returns (bool) {\n        require(block.timestamp > lotteryEpoch && block.timestamp < lotteryEpoch + 10 minutes);\n        lotteryEpoch += 7 days;\n        uint256 winnerId = uint256(blockhash(block.number)) % (2 * participants.length);\n        \n        if (winnerId >= participants.length) { return false; }\n        \n        uint256 amount = address(this).balance * 90 / 100;\n        (bool sent, ) = participants[winnerId].call{value: amount}(\"\");\n        require(sent, \"payment failed\");\n        \n        return true;\n    }\n}\n",
  "sourcePath": "/home/mark/crypto/final22/6/contracts/Lottery.sol",
  "compiler": {
    "name": "solc",
    "version": "0.8.12+commit.f00d7308.Emscripten.clang"
  },
  "schemaVersion": "3.4.3",
  "updatedAt": "2022-02-27T21:19:15.769Z",
  "devdoc": {
    "kind": "dev",
    "methods": {},
    "version": 1
  },
  "userdoc": {
    "kind": "user",
    "methods": {},
    "version": 1
  }
}