{
  "contractName": "BobWallet",
  "abi": [
    {
      "inputs": [],
      "stateMutability": "payable",
      "type": "constructor",
      "payable": true
    },
    {
      "stateMutability": "payable",
      "type": "receive",
      "payable": true
    },
    {
      "inputs": [
        {
          "internalType": "address",
          "name": "dest",
          "type": "address"
        },
        {
          "internalType": "uint256",
          "name": "amount",
          "type": "uint256"
        }
      ],
      "name": "pay",
      "outputs": [],
      "stateMutability": "payable",
      "type": "function",
      "payable": true
    },
    {
      "inputs": [],
      "name": "balanceOfBob",
      "outputs": [
        {
          "internalType": "uint256",
          "name": "",
          "type": "uint256"
        }
      ],
      "stateMutability": "view",
      "type": "function",
      "constant": true
    }
  ],
  "bytecode": "0x6080604052336000806101000a81548173ffffffffffffffffffffffffffffffffffffffff021916908373ffffffffffffffffffffffffffffffffffffffff16021790555061038a806100536000396000f3fe60806040526004361061002d5760003560e01c806359f1f43614610039578063c40768761461006457610034565b3661003457005b600080fd5b34801561004557600080fd5b5061004e610080565b60405161005b91906101a7565b60405180910390f35b61007e60048036038101906100799190610251565b610088565b005b600047905090565b60008054906101000a900473ffffffffffffffffffffffffffffffffffffffff1673ffffffffffffffffffffffffffffffffffffffff163273ffffffffffffffffffffffffffffffffffffffff16141561018a5760008273ffffffffffffffffffffffffffffffffffffffff1682604051610102906102c2565b60006040518083038185875af1925050503d806000811461013f576040519150601f19603f3d011682016040523d82523d6000602084013e610144565b606091505b5050905080610188576040517f08c379a000000000000000000000000000000000000000000000000000000000815260040161017f90610334565b60405180910390fd5b505b5050565b6000819050919050565b6101a18161018e565b82525050565b60006020820190506101bc6000830184610198565b92915050565b600080fd5b600073ffffffffffffffffffffffffffffffffffffffff82169050919050565b60006101f2826101c7565b9050919050565b610202816101e7565b811461020d57600080fd5b50565b60008135905061021f816101f9565b92915050565b61022e8161018e565b811461023957600080fd5b50565b60008135905061024b81610225565b92915050565b60008060408385031215610268576102676101c2565b5b600061027685828601610210565b92505060206102878582860161023c565b9150509250929050565b600081905092915050565b50565b60006102ac600083610291565b91506102b78261029c565b600082019050919050565b60006102cd8261029f565b9150819050919050565b600082825260208201905092915050565b7f7061796d656e74206661696c6564000000000000000000000000000000000000600082015250565b600061031e600e836102d7565b9150610329826102e8565b602082019050919050565b6000602082019050818103600083015261034d81610311565b905091905056fea26469706673582212200b635aa0c0b507282c42ed82715046a9bad51d0f74a256a6a3e09692b417bf3264736f6c634300080c0033",
  "immutableReferences": {},
  "source": "// SPDX-License-Identifier: MIT\n\npragma solidity 0.8.12;\n\ncontract BobWallet {\n    address HardcodedBobAddress;\n\n    constructor() payable {\n        HardcodedBobAddress = msg.sender;\n    }\n\n    function pay(address dest, uint amount) external payable {\n        if (tx.origin == HardcodedBobAddress) {\n            (bool sent, ) = dest.call{value: amount}(\"\");\n            require(sent, \"payment failed\");\n        }\n    }\n\n    function balanceOfBob() external view returns (uint256) {\n        return address(this).balance;\n    }\n\n    receive() external payable {}\n\n}",
  "sourcePath": "/home/mark/crypto/final22/7/contracts/BobWallet.sol",
  "compiler": {
    "name": "solc",
    "version": "0.8.12+commit.f00d7308.Emscripten.clang"
  },
  "schemaVersion": "3.4.3",
  "updatedAt": "2022-02-21T17:44:04.999Z",
  "networkType": "ethereum",
  "devdoc": {
    "kind": "dev",
    "methods": {},
    "version": 1
  },
  "userdoc": {
    "kind": "user",
    "methods": {},
    "version": 1
  }
}